:100000000C9464000C948C000C948C000C948C0068
:100010000C948C000C948C000C948C000C948C0030
:100020000C948C000C948C000C948C000C948C0020
:100030000C948C000C948C000C948C000C948C0010
:100040000C9427070C948C000C94D0050C94F805A4
:100050000C948C000C948C000C948C000C948C00F0
:100060000C948C000C948C000000000024002700ED
:100070002A0000000000250028002B0000000000DE
:1000800023002600290004040404040404040202DA
:100090000202020203030303030301020408102007
:1000A0004080010204081020010204081020000012
:1000B0000007000201000003040600000000000029
:1000C00000001D04BD06220411241FBECFEFD8E09E
:1000D000DEBFCDBF11E0A0E0B1E0E8E7F4E102C08F
:1000E00005900D92AC36B107D9F712E0ACE6B1E05D
:1000F00001C01D92A034B107E1F710E0C6ECD0E0DA
:1001000004C02297FE010E94F808C23CD107C9F73B
:100110000E9461040C942F0A0C940000FC011082D0
:100120008FEF81831382128282E2848386E9858342
:10013000178216820895CF93DF93EC01862F688390
:100140009FEF99831B821A8220916C0130916D017F
:100150003F832E83D0936D01C0936C0160E00E94B9
:100160005608888161E00E94320881E0DF91CF91DA
:1001700008951F93CF93DF93EC019B0177FD04C09B
:10018000653B710524F405C020E030E002C024EB9B
:1001900030E029831C818D8190E0811B9109AA2781
:1001A00097FDA095BA2F6627782F892F9A2F30E0D8
:1001B00040E050E00E948E0824EB30E040E050E048
:1001C0000E94C008812F90E0A0E0B0E0BA2FA92FD4
:1001D000982F8827280F391F4A1F5B1F66E0569506
:1001E0004795379527956A95D1F73B832A83DF9109
:1001F000CF911F9108954F925F927F928F929F921D
:10020000AF92BF92CF92DF92EF92FF920F931F9324
:10021000DF93CF93CDB7DEB74DB65EB6ADB6752CD6
:100220000E946F0720916E0130916F014091700123
:1002300050917101621773078407950750F02C5E87
:100240003F4F4F4F5F4F621773078407950708F4BE
:10025000A4C060936E0170936F01809370019093BE
:100260007101E0916C01F0916D01BB2408C08281A5
:100270009381009709F0B3940680F781E02D3097C1
:10028000B1F7BB2009F489C08B2D90E0880F991F2E
:10029000EDB6FEB6E81AF90A0FB6F894FEBE0FBE28
:1002A000EDBE0894E11CF11CE0916C01F0916D0130
:1002B00020E011C082819381009751F0A22FB0E01D
:1002C000AA0FBB1FAE0DBF1D1196FC93EE932F5FBF
:1002D0000680F781E02D309769F727C0E02FF0E026
:1002E0006F01CC0CDD1CCE0CDF1CD6018D919C91D6
:1002F0003197EE0FFF1FEE0DFF1D20813181DC01D4
:1003000012966D917C911397D90112964D915C9143
:1003100013976417750738F4D60111963C932E9302
:100320009183808311E00F5F02C010E001E00B15A4
:10033000A8F21123D1F78701CC2409C0D801ED918F
:10034000FD918D01808161E00E945608C394CB1419
:10035000A8F326B500E010E08824C22EDD241BC0DF
:10036000D701ED91FD917D01828193818C0D9D1DC1
:1003700001C0292D96B4921610F400501F4F980119
:10038000290D311D82179307A0F7808160E00E943C
:1003900056088394292D8B1418F38A2D972D0FB6A8
:1003A000F8949EBF0FBE8DBF0FB6F8945EBE0FBE11
:1003B0004DBECF91DF911F910F91FF90EF90DF9095
:1003C000CF90BF90AF909F908F907F905F904F9015
:1003D00008950F931F93CF93DF9328E331E0FC013F
:1003E000219331938F01309779F0EC01C658DF4F9C
:1003F000C017D10749F02C97E881F9810190F0816D
:10040000E02DCE010995F4CFDF91CF911F910F918F
:100410000895CF93DF93EC010E94E901CE010E9481
:100420002407DF91CF910895EF92FF920F931F93CE
:10043000CF93DF938C0188E391E0F801819391934E
:100440007F01C0E0D0E0C7018C0F9D1F0E943504E2
:100450002C96C837D105B9F7F801EC55FF4F11823A
:100460001082F801EA55FF4F11821082DF91CF917F
:100470001F910F91FF90EF900895FC01E658FF4FF8
:10048000DC01AC014E555F4F9C012E5F3F4F318325
:100490002083338322833496E417F507C1F7FC01E8
:1004A000EA55FF4F6081718140E050E023C016960D
:1004B000ED91FC911797EE0FFF1F1A962D913C912D
:1004C0001B97E20FF31FFD96EE0FFF1FE80FF91FBA
:1004D0009A01220F331F240F351F220F331F220FC3
:1004E000331F2E5F3F4F280F391F318320834F5F0B
:1004F0005F4F1C9646175707D4F208959F92AF920C
:10050000BF92CF92DF92EF92FF920F931F93DF93F0
:10051000CF93CDB7DEB72E970FB6F894DEBF0FBEE0
:10052000CDBF7C016E010894C11CD11CC6016D8732
:100530007E870E9435046D857E85A62EB72E00E04D
:1005400010E09C2CCD2CF501619171915F01892DFA
:100550009C2D0E943D040F5F1F4F0430110599F739
:10056000F701EC55FF4F808191819C012F5F3F4F38
:1005700031832083FC01EE0FFF1FE80FF91FEE0F00
:10058000FF1FEE0FFF1FEE0DFF1D3496DE011396C9
:1005900028E00D9001922150E1F70196FC01EE0F49
:1005A000FF1FE80FF91FEE0FFF1FEE0FFF1FEE0DED
:1005B000FF1D8B859C8591838083CE0101960E94CF
:1005C00027042E960FB6F894DEBF0FBECDBFCF9195
:1005D000DF911F910F91FF90EF90DF90CF90BF9030
:1005E000AF909F900895862F972FFC0120E030E078
:1005F00081918032A9F08A3099F0A901440F551FEA
:10060000A3E0220F331FAA95E1F7420F531F282FB3
:10061000332727FD309520533040240F351FE8CF76
:10062000C90108958F929F92AF92BF92CF92DF92AD
:10063000EF92FF920F931F93DF93CF93CDB7DEB767
:1006400060970FB6F894DEBF0FBECDBF8C0188E077
:100650005E010894A11CB11CF501982F11929A9586
:10066000E9F7BE01675F7F4FFB0111928A95E9F7B9
:10067000C8010E947E02EE24FF24CC24DD2432EA4D
:10068000832E912C800E911E26C00894E11CF11C33
:10069000863459F087342CF48A30B9F08234D9F496
:1006A00004C08C3411F08435B1F46E0D7F1DC80187
:1006B0000E94F302F601EE0FFF1FEA0DFB1D91836E
:1006C00080830894C11CD11C06C0C801B5010E94DA
:1006D0007E02CC24DD24F40160817181FB01EE0DEA
:1006E000FF1D8081882389F6D801AA55BF4FF801E4
:1006F000EC55FF4F8081918111969C938E931182CE
:10070000108260960FB6F894DEBF0FBECDBFCF91BA
:10071000DF911F910F91FF90EF90DF90CF90BF90EE
:10072000AF909F908F900895FC01EE55FF4F71831D
:1007300060830E941203089520E431E0FC013183BC
:100740002083089520E431E0FC01318320830E945E
:1007500024070895CF93DF93EC0120E431E0FC01FE
:1007600021933193CF010E948E00CE010A960E9400
:100770008E00CE0142960E948E00DF91CF910895A7
:100780008130910529F482E791E00E94AA0308953F
:10079000009731F480E491E09093730180937201AB
:1007A0000895EF92FF920F931F93DF93CF93CDB7EE
:1007B000DEB728970FB6F894DEBF0FBECDBF7C0121
:1007C0008E010F5F1F4FC8010E948E00C8016EE0AE
:1007D00070E00E949B00D7011296F80188E001901A
:1007E0000D928150E1F787010E5E1F4FC8016BE04B
:1007F00070E00E949B00C8016AE570E00E94B900A9
:100800000E94FB0060ED77E080E090E00E94A3078B
:1008100028960FB6F894DEBF0FBECDBFCF91DF9103
:100820001F910F91FF90EF900895429660E070E065
:100830000E94B9000E94FB00089581E090E00E94B0
:10084000C003089580E090E00E94C003089528E46A
:1008500031E0FC0131832083089528E431E0FC017C
:10086000318320830E9424070895FC0188E491E0ED
:1008700091838083138612860895FC018285938577
:100880009C012F5F3F4F338722878130910581F094
:10089000823091051CF4009741F008958230910553
:1008A00051F08330910561F409C075836483089524
:1008B0007383628308957783668308957187608761
:1008C0000895EF92FF920F931F93DF93CF93CDB7CD
:1008D000DEB7C55BD0400FB6F894DEBF0FBECDBF0C
:1008E0000E94CA0784E192E040E855E260E070E0CF
:1008F0000E943F0682E791E00E94D1038E01025FD1
:100900001F4FC8010E941402C80166E071E00E94F6
:100910009403C8010E943D027E010894E11CF11C71
:10092000C7010E94BC04C701B8010E94F8041A86DE
:10093000198681E08D871C861B8682E791E060E046
:1009400070E044EB50E00E94150482E791E061E022
:1009500070E040E050E00E941504EFCF20E531E068
:10096000FC0131832083089520E531E0FC013183CF
:1009700020830E9424070895EF92FF920F931F9304
:10098000DF93CF93CDB7DEB72A970FB6F894DEBFCB
:100990000FBECDBF7C0180E591E0F701918380839C
:1009A0008E010F5F1F4FC80160E070E00E940A05D2
:1009B000F70115830483C8010E94FC04C80161E0AB
:1009C00070E00E940A05F70117830683C8010E94A0
:1009D000FC04F70114862A960FB6F894DEBF0FBE0A
:1009E000CDBFCF91DF911F910F91FF90EF900895B0
:1009F000FC0173836283089528E531E0FC013183B3
:100A00002083089528E531E0FC01318320830E9492
:100A100024070895FC0188E591E091838083138287
:100A20001282178216821582148271876087089558
:100A3000FC0184859585FC01E05CFF4F20813181BC
:100A40008E5B9F4FFC0180819181281B390B2F7396
:100A50003070C9010895FC0184859585FC01E05C36
:100A6000FF4F40815181FC01EE5BFF4F20813181BE
:100A70004217530741F00190F081E02DE80FF91F74
:100A8000208130E002C02FEF3FEFC9010895FC0143
:100A900084859585FC01E05CFF4F40815181FC011C
:100AA000EE5BFF4F208131814217530771F0A08127
:100AB000B181A80FB91F2C918081918101968F730C
:100AC00090709183808330E002C02FEF3FEFC90127
:100AD0000895DC011E968D919C911F97FC01E05CAE
:100AE000FF4F8E5B9F4F40815181DC012D913C91E6
:100AF000119742175307B9F708951F93FC01162F5A
:100B000026853785D901A05CBF4F8D919C910196B8
:100B100060E470E00E94AD08D901AE5BBF4F4D911B
:100B20005C91119784179507D1F3D901A05CBF4F51
:100B30000D90BC91A02DA20FB31F1C93A685B78565
:100B4000A05CBF4F11969C938E93A689B7892C9178
:100B500081E090E0058C02C0880F991F0A94E2F7AB
:100B6000282B2C9381E090E01F910895FB01E05C1D
:100B7000FF4F208131812F5F3F4F2F733070DB019A
:100B8000AE5BBF4F4D915C9111972417350739F03B
:100B9000A081B181A60FB71F8C9331832083089564
:100BA0001F920F920FB60F9211242F933F934F93E2
:100BB0005F936F937F938F939F93AF93BF93EF93C5
:100BC000FF938091C6006CE871E00E94B605FF912A
:100BD000EF91BF91AF919F918F917F916F915F91B5
:100BE0004F913F912F910F900FBE0F901F9018952E
:100BF0001F920F920FB60F9211242F933F935F9382
:100C00006F937F938F939F93AF93BF93EF93FF93D4
:100C100020911002309111028091120290911302E2
:100C20002817390731F48091C1008F7D8093C1006E
:100C300016C0E0911202F0911302E053FE4F2081A2
:100C40008091120290911302019660E470E00E947C
:100C5000AD0890931302809312022093C600FF9177
:100C6000EF91BF91AF919F918F917F916F915F9124
:100C70003F912F910F900FBE0F901F901895DF920C
:100C8000EF92FF920F931F93CF93DF93EC017A01C2
:100C90008B01DD24D394403081EE580780E0680753
:100CA00080E0780749F4DD24EC89FD89108260E852
:100CB00074E88EE190E00FC0EC89FD8981E090E05E
:100CC0000E8C02C0880F991F0A94E2F7808360E0BF
:100CD00079E08DE390E0A80197010E94C0082150BF
:100CE000304040405040569547953795279580E1D4
:100CF0002030380710F0DD20B1F6E889F98930831B
:100D0000EA89FB892083EE89FF89408181E090E0B8
:100D10009C010A8C02C0220F331F0A94E2F7422B77
:100D20004083EE89FF8940819C010B8C02C0220F19
:100D3000331F0A94E2F7422B4083EE89FF894081FA
:100D40009C010C8C02C0220F331F0A94E2F7422B45
:100D50004083EE89FF8920810D8C02C0880F991F86
:100D60000A94E2F7809582238083DF91CF911F91CF
:100D70000F91FF90EF90DF9008951092170210925C
:100D8000160288EE93E0A0E0B0E080931802909302
:100D90001902A0931A02B0931B02E6E1F2E080E68A
:100DA00091E0929382938CE891E09587848780ED1F
:100DB00091E09787868785EC90E0918B808B84EC1F
:100DC00090E0938B828B80EC90E0958B848B81EC10
:100DD00090E0978B868B86EC90E0918F808F84E0FB
:100DE000828F83E0838F87E0848F85E0858F81E029
:100DF000868F0895CF92DF92EF92FF920F931F9309
:100E0000CF93DF936C017B018A01C0E0D0E00FC07B
:100E1000D7016D917D01D601ED91FC910190F0819A
:100E2000E02DC6010995C80FD91F015010400115CA
:100E3000110571F7CE01DF91CF911F910F91FF90B6
:100E4000EF90DF90CF9008950E94960908951F9229
:100E50000F920FB60F9211242F933F938F939F936E
:100E6000AF93BF938091370290913802A0913902DD
:100E7000B0913A0230913B020196A11DB11D232F82
:100E80002D5F2D3720F02D570196A11DB11D209308
:100E90003B028093370290933802A0933902B093BB
:100EA0003A028091330290913402A0913502B091C0
:100EB00036020196A11DB11D809333029093340236
:100EC000A0933502B0933602BF91AF919F918F915D
:100ED0003F912F910F900FBE0F901F9018958FB7D5
:100EE000F8942091370230913802409139025091A4
:100EF0003A028FBFB901CA0108959FB7F8942091B3
:100F0000330230913402409135025091360286B559
:100F1000A89B06C08F3F21F02F5F3F4F4F4F5F4F81
:100F20009FBF542F432F322F2227280F311D411DE1
:100F3000511D82E0220F331F441F551F8A95D1F7A0
:100F4000B901CA010895EF92FF920F931F93CF93B7
:100F5000DF937B018C010E947D07EB010FC00E9493
:100F60007D076C1B7D0B83E0683E780738F00894A2
:100F7000E108F10801091109C851DC4FE114F1043D
:100F80000105110561F7DF91CF911F910F91FF903E
:100F9000EF900895789484B5826084BD84B58160B3
:100FA00084BD85B5826085BD85B5816085BDEEE671
:100FB000F0E0808181608083E1E8F0E01082808150
:100FC00082608083808181608083E0E8F0E08081BE
:100FD00081608083E1EBF0E0808184608083E0EBDE
:100FE000F0E0808181608083EAE7F0E080818460C6
:100FF0008083808182608083808181608083808122
:10100000806880831092C1000895833071F084302D
:1010100028F48130A1F0823021F514C08630B1F07F
:101020008730D1F08430E9F404C0809180008F775C
:1010300003C0809180008F7D80938000089584B5E7
:101040008F7702C084B58F7D84BD08958091B000F4
:101050008F778093B00008958091B0008F7D80934A
:10106000B000089590E0FC01E656FF4F2491FC018A
:10107000EA57FF4FE491EE23C1F0F0E0EE0FFF1FBF
:10108000E859FF4F85919491DC01662341F49FB7A5
:10109000F8948C91209582238C939FBF08959FB7DD
:1010A000F8948C91822B8C939FBF08950F931F937C
:1010B000DF93CF930F92CDB7DEB7282F30E0F90141
:1010C000E255FF4F8491F901E656FF4F14912A57DC
:1010D0003F4FF90104910023D9F0882321F069835F
:1010E0000E9405086981E02FF0E0EE0FFF1FEE5827
:1010F000FF4F85919491DC019FB7F894662321F40A
:101100008C911095812302C08C91812B8C939FBF71
:101110000F90CF91DF911F910F910895629FD001A1
:10112000739FF001829FE00DF11D649FE00DF11DA2
:10113000929FF00D839FF00D749FF00D659FF00D51
:101140009927729FB00DE11DF91F639FB00DE11D3E
:10115000F91FBD01CF011124089597FB092E072621
:101160000AD077FD04D02ED006D000201AF4709556
:1011700061957F4F0895F6F7909581959F4F08955B
:10118000A1E21A2EAA1BBB1BFD010DC0AA1FBB1F8B
:10119000EE1FFF1FA217B307E407F50720F0A21BFD
:1011A000B30BE40BF50B661F771F881F991F1A946A
:1011B00069F760957095809590959B01AC01BD0194
:1011C000CF010895AA1BBB1B51E107C0AA1FBB1F7B
:1011D000A617B70710F0A61BB70B881F991F5A95C3
:1011E000A9F780959095BC01CD010895EE0FFF1FE2
:1011F0000590F491E02D0994CF93DF93823091050F
:1012000010F482E090E0E0913E02F0913F0240E075
:1012100050E020E030E026C06081718168177907D6
:10122000E0F06817790781F48281938121153105F7
:1012300031F0D90113969C938E9312972BC0909303
:101240003F0280933E0226C04115510519F06417F4
:10125000750718F4AB01E901DF019F017281638119
:10126000E72FF62F3097C1F64115510501F1481BC4
:10127000590B4430510580F412968D919C9113972F
:10128000209719F09B838A8304C090933F02809338
:101290003E02FD01329646C0FD01E40FF51F819329
:1012A00091934250504011965C934E933BC02091D5
:1012B0003C0230913D022115310541F4209102019B
:1012C0003091030130933D0220933C0220910401B0
:1012D000309105012115310541F42DB73EB74091FC
:1012E000000150910101241B350BE0913C02F0916B
:1012F0003D02E217F307A0F42E1B3F0B2817390716
:1013000078F0AC014E5F5F4F2417350748F04E0F61
:101310005F1F50933D0240933C028193919302C022
:10132000E0E0F0E0CF01DF91CF910895CF93DF931C
:10133000009709F491C0FC013297138212826091E8
:101340003E0270913F026115710581F42081318167
:10135000280F391F80913C0290913D02821793071C
:1013600099F5F0933D02E0933C0276C0DB0180E00A
:1013700090E002C0CD01D901AE17BF0748F4129624
:101380002D913C91139721153105A1F7CD0121C075
:10139000B383A283EF01499159919E01240F351F18
:1013A000A217B30779F42D913C911197240F351FA3
:1013B0002E5F3F4F3183208312962D913C911397DE
:1013C00033832283009729F4F0933F02E0933E0297
:1013D00043C0DC011396FC93EE9312974D915D91FF
:1013E000A40FB51FEA17FB0769F420813181240F90
:1013F000351F2E5F3F4FEC013983288322813381D3
:101400003B832A83E0E0F0E002C0FB01BC01DB018A
:1014100012968D919C9113970097B9F79B012E5FBF
:101420003F4F8D919C911197820F931F40913C02E9
:1014300050913D024817590779F4309729F41092DA
:101440003F0210923E0202C01382128222503040AC
:1014500030933D0220933C02DF91CF91089510E03C
:10146000C6ECD0E004C0FE010E94F8082296C83CF9
:08147000D107C9F7F894FFCF82
:101478002000400200005431204C352046333320F0
:1014880042310A205436204C32322046333320422F
:10149800300A205434204C34353620463738392029
:1014A80042310A0000000000E901090200000000C2
:1014B8009C03A2030000000027042D040000000084
:1014C800AE04B40400000000FC04020500000000A3
:0C14D8007D05FA06180547052B0569057F
:00000001FF
