:100000000C9464000C948C000C948C000C948C0068
:100010000C948C000C948C000C948C000C948C0030
:100020000C948C000C948C000C948C000C948C0020
:100030000C948C000C948C000C948C000C948C0010
:100040000C945D0B0C948C000C9431080C94650896
:100050000C948C000C948C000C948C000C948C00F0
:100060000C948C000C948C000000000024002700ED
:100070002A0000000000250028002B0000000000DE
:1000800023002600290004040404040404040202DA
:100090000202020203030303030301020408102007
:1000A0004080010204081020010204081020000012
:1000B0000007000201000003040600000000000029
:1000C00000004005DC09090511241FBECFEFD8E070
:1000D000DEBFCDBF13E0A0E0B1E0E2E6FBE102C08D
:1000E00005900D92A033B107D9F714E0A0E3B3E077
:1000F00001C01D92AC30B107E1F710E0C6ECD0E0D2
:1001000004C02297FE010E94A00DC23CD107C9F78E
:100110000E94FC050C94A40D0C940000CF93DF9377
:10012000BC018230910510F462E070E0A0910A04F5
:10013000B0910B04ED01E0E0F0E040E050E021C0C0
:10014000888199818617970769F48A819B81309706
:1001500019F09383828304C090930B0480930A0464
:10016000FE0134C06817790738F44115510519F0BC
:100170008417950708F4AC01FE018A819B819C01DC
:10018000E9012097E9F641155105A9F1CA01861B3D
:10019000970B049708F4BA01E0E0F0E02AC08D91D3
:1001A0009C91119784179507F9F46417750781F4EA
:1001B00012968D919C911397309719F093838283B7
:1001C00004C090930B0480930A04FD0132964CC046
:1001D000CA01861B970BFD01E80FF91F619371930C
:1001E00002978D939C9340C0FD01828193819C0175
:1001F000D9011097A1F68091080490910904892BE8
:1002000041F480910A0190910B019093090480932D
:10021000080440910C0150910D014115510541F424
:100220004DB75EB78091080190910901481B590BA9
:100230002091080430910904CA01821B930B861790
:10024000970780F0AB014E5F5F4F8417950750F022
:10025000420F531F5093090440930804F90161931E
:10026000719302C0E0E0F0E0CF01DF91CF910895FB
:10027000CF93DF93009709F450C0EC0122971B82C3
:100280001A82A0910A04B0910B04109709F140E082
:1002900050E0AC17BD0708F1BB83AA83FE01219192
:1002A0003191E20FF31FAE17BF0779F48D919C9146
:1002B0001197280F391F2E5F3F4F398328831296DD
:1002C0008D919C9113979B838A834115510571F4FD
:1002D000D0930B04C0930A0420C012968D919C9178
:1002E0001397AD01009711F0DC01D3CFFA01D3834E
:1002F000C28321913191E20FF31FCE17DF0769F41A
:1003000088819981280F391F2E5F3F4FFA01318371
:1003100020838A819B8193838283DF91CF9108958B
:10032000FC0110828FEF81831382128282E2848328
:1003300086E98583178216820895EF92FF920F93C4
:100340001F93CF93DF93EC019B0177FF03C020E065
:1003500030E005C0653B710514F024EB30E02983E3
:10036000EC806D8170E06E197109882777FD8095AA
:10037000982F982F872F762F662730E040E050E0A7
:100380000E94360D24EB30E040E050E00E94680D02
:10039000FF2400E010E0102F0F2DFE2CEE242E0D78
:1003A0003F1D401F511F66E056954795379527958D
:1003B0006A95D1F73B832A83DF91CF911F910F91EB
:1003C000FF90EF9008955F926F927F928F929F922D
:1003D000AF92BF92CF92DF92EF92FF920F931F9353
:1003E000DF93CF93CDB7DEB76DB67EB6ADB65EB652
:1003F0000E94A50B209132033091330340913403C6
:1004000050913503621773078407950750F02C5EEF
:100410003F4F4F4F5F4F621773078407950708F4EC
:10042000AFC060933203709333038093340390938F
:100430003503E0913003F0913103BB2408C0828181
:100440009381892B09F0B3940680F781E02D3097D2
:10045000B1F7BB2009F494C08B2D90E0880F991F51
:100460002DB73EB7281B390B0FB6F8943EBF0FBE11
:100470002DBFCDB6DEB60894C11CD11CA0913003AF
:10048000B091310320E013C012968D919C91139787
:10049000892B49F0E22FF0E0EE0FFF1FEC0DFD1D60
:1004A000B183A0832F5F16960D90BC91A02D10975D
:1004B00059F72CC0812F90E07C01EE0CFF1CEC0C56
:1004C000FD1CD7016D917C91FC013197EE0FFF1F50
:1004D000EC0DFD1D40815181DB0112962D913C9167
:1004E0001397DA0112968D919C911397281739076B
:1004F00030F4D7014D935C937183608301E01F5FFB
:100500001B15C0F2002311F410E011C011E000E04F
:10051000F7CFE12FF0E0EE0FFF1FEC0DFD1D019076
:10052000F081E02D808161E00E948F0C1F5F1B1520
:1005300080F3F6B4EE2400E010E08F2C99241EC066
:10054000EE2DF0E0EE0FFF1FEC0DFD1D0190F08190
:10055000E02D22813381280D391D86B58F1510F4C9
:1005600000501F4FF82EC8018F0D911D2817390715
:10057000A0F7808160E00E948F0CE394EB1400F3FD
:100580008A2D952D9C010FB6F8943EBF0FBE2DBF4E
:100590000FB6F8947EBE0FBE6DBECF91DF911F9156
:1005A0000F91FF90EF90DF90CF90BF90AF909F9012
:1005B0008F907F906F905F9008950F931F938C01A1
:1005C000FC0160838FEF818313821282809130035C
:1005D0009091310397838683109331030093300306
:1005E000808160E00E948F0CF801808161E00E94B0
:1005F000690C81E01F910F9108950F931F93CF9382
:10060000DF93FC0184EE92E0DF018D939D938D01D9
:10061000109779F0EF01C65ADD4FC017D10749F0A6
:100620002C97E881F9810190F081E02DCE010995A8
:10063000F4CFDF91CF911F910F910895CF93DF9366
:10064000AC019C012E5F3F4FFC01E65AFD4F80E05C
:1006500090E007C0DA0120E030E0EA01C251DC4F4F
:100660002DC03183208333832283019634968436D0
:100670009105B9F7EFCF1696ED91FC911797EE0F14
:10068000FF1F1A968D919C911B97E80FF91FE35D50
:10069000FE4FEE0FFF1FE40FF51FC901880F991FD2
:1006A000820F931F880F991F880F991F0296840F3E
:1006B000951F918380832F5F3F4F1C96888199817E
:1006C00028173907C4F2DF91CF910895CF92DF92B6
:1006D000EF92FF920F931F93CF93DF937C018B01D7
:1006E00082E090E00E945A0BD82EC92EC801880FD4
:1006F000991F800F911F880F991F880F991F0296CD
:10070000E80EF91E2D2D3C2DC9018C01C0E0D0E072
:10071000C701BE010E94B105F801819391938F0139
:100720002196C430D105A1F78D2D9C2DDF91CF915D
:100730001F910F91FF90EF90DF90CF900895EF926F
:10074000FF920F931F93CF93DF938C0184EE92E07F
:10075000F801819391937F01C0E0D0E0C7018C0F35
:100760009D1F0E94A3052C96F2E0C835DF07B1F764
:1007700004511C4FF8011192119211821082DF91E5
:10078000CF911F910F91FF90EF9008959F92AF929C
:10079000BF92CF92DF92EF92FF920F931F93DF935E
:1007A000CF93CDB7DEB72C970FB6F894DEBF0FBE50
:1007B000CDBF6C015B018E010F5F1F4FC8010E940E
:1007C000A305EE24FF24902E012FF501EE0DFF1D51
:1007D00060817181892D902F0E94D10582E090E087
:1007E000E80EF91E98E0E916F10479F7F601E451F4
:1007F000FC4F808191810196918380830197FC0158
:10080000EE0FFF1FE80FF91F3196EE0FFF1FEE0FDF
:10081000FF1FEC0DFD1DDE01139628E00D900192E7
:100820002150E1F70196FC01EE0FFF1FE80FF91FC1
:10083000EE0FFF1FEE0FFF1FEC0DFD1D8B859C853E
:1008400091838083CE0101960E94AB052C960FB652
:10085000F894DEBF0FBECDBFCF91DF911F910F91F6
:10086000FF90EF90DF90CF90BF90AF909F90089552
:10087000AF92BF92CF92DF92EF92FF920F931F93AE
:10088000DF93CF93CDB7DEB760970FB6F894DEBF96
:100890000FBECDBF7C0188E08E010F5F1F4FD801D6
:1008A000E82F1D92EA95E9F7FE013996DF011D92C6
:1008B0008A95E9F7C701BF010E94C60360E070E0B6
:1008C000CC24DD24BAEEAB2EB3E0BB2EAE0CBF1CA5
:1008D0003EC00894C11CD11CE63459F0E7342CF416
:1008E000EA3079F1E23499F504C0EC3411F0E435E2
:1008F00071F5FC01EC0DFD1D20E030E0408140323F
:10090000B1F031964A3099F0C901A3E0880F991FE0
:10091000AA95E1F7220F331F820F931F242F33274D
:1009200027FD309520533040280F391FE7CFFB01BA
:10093000EE0FFF1FE00FF11F318320836F5F7F4FAA
:1009400006C0C701B8010E94C60360E070E0F5016F
:1009500080819181FC01EC0DFD1DE081EE2309F009
:10096000B8CFF701E451FC4F808191812EEE33E046
:10097000E20EF31ED7018D939C9311821082609634
:100980000FB6F894DEBF0FBECDBFCF91DF911F91A0
:100990000F91FF90EF90DF90CF90BF90AF900895B0
:1009A000FC01E651FC4F71836083EA5EF340CF01A6
:1009B0000E9438040895EF92FF920F931F93CF93F4
:1009C000DF937C0184EE92E0F701819391938F0194
:1009D000309779F0E701C65ADD4FC017D10749F0CB
:1009E0002C97E881F9810190F081E02DCE010995E5
:1009F000F4CFC7010E94570BDF91CF911F910F9148
:100A0000FF90EF900895FC018CEE92E0918380833B
:100A100008958CEE92E09093370380933603089507
:100A2000FA016115710521F06130710521F402C0F0
:100A3000429601C04A96EE0FFF1FE051FD4F6081C4
:100A400071810E949D010E94E30108950F931F93FD
:100A50008C01FC018CEE92E081939193CF010E9476
:100A60009001C8010A960E949001C80142960E9416
:100A70009001C8014A960E9490011F910F9108951C
:100A800086E393E00E9426050895EF92FF920F936C
:100A90001F93DF93CF93CDB7DEB728970FB6F894A7
:100AA000DEBF0FBECDBF8C017E010894E11CF11C9E
:100AB000C7010E949001C7010E94900142E1E42E0B
:100AC000F12CE00EF11EC7016BE070E00E94DD0228
:100AD000065E1F4FC8016AE070E00E94DD02C70198
:100AE00062E870E00E949D01C80162E870E00E9427
:100AF0009D0160ED77E080E090E00E94B30B2896C6
:100B00000FB6F894DEBF0FBECDBFCF91DF911F911E
:100B10000F91FF90EF90089589E00E94E30C20E090
:100B2000892B09F021E0822F089589E060E00E947E
:100B3000690C0895FC018CEE92E091838083CF01D3
:100B40000E94570B0895FC018CE093E09183808311
:100B5000138612860895FC018CE093E091838083D4
:100B60000895FC016130710591F0623071051CF44B
:100B7000672B51F006C06230710561F0633071057A
:100B800061F020E030E00BC02481358108C0228173
:100B9000338105C02681378102C020853185C90196
:100BA0000895FC018285938501969387828701973A
:100BB0008130910579F0823091051CF4892B39F050
:100BC00008958230910549F0039761F409C0758357
:100BD0006483089573836283089577836683089599
:100BE000718760870895FC018CE093E09183808396
:100BF000CF010E94570B0895CF92DF92EF92FF92A0
:100C00000F931F93DF93CF93CDB7DEB7C151D4407D
:100C10000FB6F894DEBF0FBECDBF0E940C0C80EE65
:100C200093E040E855E260E070E00E94AE0886E3A1
:100C300093E00E94450586E393E00E94950532E229
:100C4000C32ED12CCC0EDD1EC6010E949F03C6010F
:100C50006EE071E00E94D004C6010E941E038E0166
:100C60000F5F1F4FC8010E949F07C801B6010E9475
:100C7000CA061E8E1D8E81E089A318A21F8EC60192
:100C800060E070E00E94660380EE93E060E071E057
:100C90000E94440BEE24FF2425C0C601B7010E9428
:100CA0006603FC01E00FF11F6081718180EE93E02B
:100CB0004AE050E00E942E0B80EE93E066E071E087
:100CC0000E94410B0E5F1F4F0830110531F780EE77
:100CD00093E00E94560A0894E11CF11C8EE1E8168C
:100CE000F10419F000E010E0D8CF8BE061E00E9441
:100CF000690C8BE061E00E948F0C10E07E0108948B
:100D0000E11CF11C01E0C7010E94280786E393E083
:100D10000E948C058823B9F01123A9F01E8E1D8E28
:100D200009A318A21F8E10E0EECF19A21E8E1D8EF1
:100D300018A21F8E80E00E94470C880F991F9C8389
:100D40008B8311E0E0CF86E393E00E948C0588233B
:100D500061F3D9CF0F931F93CF93DF93FC0184E10D
:100D600093E0918380838F010A5F1F4F71F0EF0141
:100D70006C96C017D10749F02B97E881F981019053
:100D8000F081E02DCE010995F4CFDF91CF911F9135
:100D90000F910895FC01758364830895CF93DF93C9
:100DA000EC016A817B818C8D9D8D0E94550D892B74
:100DB00009F04BC08E8D9F8D01969F8F8E8F84364C
:100DC00091050CF018A2EC81FD818E8D9F8D880F0E
:100DD000991F880F991FE80FF91FE65AFD4F0190E0
:100DE000F081E02D42815381141615066CF44436CF
:100DF000510554F48481958126813781598748872C
:100E00009B878A873D872C87EC81FD818E8D9F8D06
:100E100089569F4F880F991F880F991FE80FF91F58
:100E20000190F081E02D42815381141615066CF477
:100E30004436510554F484819581268137815C8B39
:100E40004B8B9E8B8D8B388F2F8BDF91CF9108959D
:100E5000CF93DF93EC0188A1882361F18C8D9D8D68
:100E600001969D8F8C8FCE010E94CE06AE014A5F07
:100E70005F4F8A859B8528853985820F931F2E8D2C
:100E80003F8D2817390724F0CA010E94140803C0B7
:100E9000CA010E941E08AE014F5E5F4F8B899C897C
:100EA0002D893E89820F931F2E8D3F8D281739077C
:100EB00084F013C085E090E0998788871B861A86A6
:100EC0001D861C869C8B8B8B1E8A1D8A188E1F8A02
:100ED000CDCFCA010E941E0803C0CA010E94140897
:100EE000DF91CF910895EF92FF920F931F93CF93CD
:100EF000DF938C0184E193E0F8019183808346E0E5
:100F0000E42EF12CE00EF11EE114F10471F0E80181
:100F10006C96CE15DF0549F02B97E881F981019099
:100F2000F081E02DCE010995F4CFC8010E94570B46
:100F3000DF91CF911F910F91FF90EF900895EF9265
:100F4000FF920F931F93DF93CF93CDB7DEB72B970D
:100F50000FB6F894DEBF0FBECDBF7C0184E193E0F5
:100F6000F70191838083C70106960E940108C7019B
:100F700041960E940108CE0101960E9401081A863E
:100F80001986D7011896FE01339686E001900D92DE
:100F90008150E1F789859A85F701978786878B8548
:100FA000808B8E010F5F1F4FC8010E940E08C80181
:100FB0000E94010881E090E09A878987D7015396C3
:100FC000FE01339686E001900D928150E1F781E0B9
:100FD00090E0F701928F818F8B85838FCE010196F0
:100FE0000E940E08F70110A22B960FB6F894DEBFF0
:100FF0000FBECDBFCF91DF911F910F91FF90EF906A
:101000000895FC018CE193E0918380831382128226
:10101000178216821582148212860895FC018CE1D3
:1010200093E0918380830895FC016085718586E358
:1010300093E040E050E00E9410050895FC016085B7
:1010400071854681578186E393E00E9410050895DB
:10105000FC018CE193E091838083CF010E94570BC8
:1010600008951F920F920FB60F9211242F933F9362
:101070004F938F939F93EF93FF934091C6002091DE
:101080009803309199032F5F3F4F2F7330708091F9
:101090009A0390919B032817390759F0E091980320
:1010A000F0919903E85AFC4F4083309399032093C1
:1010B0009803FF91EF919F918F914F913F912F91C5
:1010C0000F900FBE0F901F9018951F920F920FB6A2
:1010D0000F9211242F933F934F935F936F937F93BE
:1010E0008F939F93AF93BF93EF93FF932091DC0374
:1010F0003091DD038091DE039091DF0328173907DB
:1011000031F48091C1008F7D8093C10016C0E091C1
:10111000DE03F091DF03E456FC4F40818091DE0353
:101120009091DF03019660E470E00E94550D90936A
:10113000DF038093DE034093C600FF91EF91BF91E0
:10114000AF919F918F917F916F915F914F913F915F
:101150002F910F900FBE0F901F901895AF92BF92D6
:10116000DF92EF92FF920F931F93CF93DF93EC01E7
:101170007A018B01DD24403081EE580780E068075A
:1011800080E0780711F0DD24D39491E0A92EB12CF2
:10119000EC89FD89DD2069F0C5010E8C02C0880F45
:1011A000991F0A94E2F7808360E079E08DE390E094
:1011B00005C0108260E874E88EE190E0A801970114
:1011C0000E94680D21503040404050405695479550
:1011D0003795279580E12030380720F0DD2011F089
:1011E000DD24D6CFE889F9893083EA89FB89208319
:1011F000EE89FF89408121E030E0C9010A8C02C0FC
:10120000880F991F0A94E2F7482B4083EE89FF89E3
:101210004081C9010B8C02C0880F991F0A94E2F724
:10122000482B4083EE89FF894081C9010C8C02C0A4
:10123000880F991F0A94E2F7482B4083EE89FF89B3
:1012400080810D8C02C0220F331F0A94E2F7209593
:1012500028232083DF91CF911F910F91FF90EF9072
:10126000DF90BF90AF900895DC011C96ED91FC914A
:101270001D97E05CFF4F2191319180819181281B66
:10128000390B2F733070C9010895DC011C96ED9164
:10129000FC911D97E05CFF4F20813181E054F040CC
:1012A000DF01AE5BBF4F8D919C91119728173907D5
:1012B00019F42FEF3FEF07C08D919C91E80FF91FB4
:1012C0008081282F30E0C9010895DC011C96ED9142
:1012D000FC911D97E05CFF4F20813181E054F0408C
:1012E000DF01AE5BBF4F8D919C9111972817390795
:1012F00019F42FEF3FEF10C08D919C911197E80FDB
:10130000F91F20818D919C91119701968F73907098
:1013100011969C938E9330E0C9010895FC01868557
:101320009785DC01A05CBF4FFC01EE5BFF4F2D9168
:101330003C9111978081918128173907C1F7089551
:10134000CF93DF93EC01462FEE85FF85E05CFF4FE6
:1013500080819181E054F040019660E470E00E9449
:10136000550D9C01DF01AE5BBF4F8D919C91119794
:1013700028173907D1F3E05CFF4F80819181E05459
:10138000F040E80FF91F4083EE85FF85E05CFF4FDA
:1013900031832083EE89FF89208181E090E00D8CEC
:1013A00002C0880F991F0A94E2F7282B208381E05E
:1013B00090E0DF91CF9108951092E3031092E20341
:1013C00088EE93E0A0E0B0E08093E4039093E5031F
:1013D000A093E603B093E70384E293E09093E103E4
:1013E0008093E00388E593E09093ED038093EC0312
:1013F0008CE993E09093EF038093EE0385EC90E00B
:101400009093F1038093F00384EC90E09093F303C6
:101410008093F20380EC90E09093F5038093F403C3
:1014200081EC90E09093F7038093F60386EC90E0D4
:101430009093F9038093F80384E08093FA0383E0A8
:101440008093FB0387E08093FC0385E08093FD039A
:1014500081E08093FE030895CF92DF92EF92FF9296
:101460000F931F93CF93DF937C016B018A01C0E040
:10147000D0E00FC0D6016D916D01D701ED91FC91C7
:101480000190F081E02DC7010995C80FD91F0150C7
:1014900010400115110571F7CE01DF91CF911F9119
:1014A0000F91FF90EF90DF90CF900895EF92FF9211
:1014B0000F931F938C01DC01ED91FC910190F08161
:1014C000E02D6DE009957C01D801ED91FC91019032
:1014D000F081E02DC8016AE009959C012E0D3F1DA9
:1014E000C9011F910F91FF90EF900895CF93DF9363
:1014F000DB010D900020E9F71197A61BB70BEC015B
:10150000E881F9810280F381E02DAD010995DF9139
:10151000CF9108954F925F927F928F929F92AF9258
:10152000BF92CF92DF92EF92FF920F931F93DF93C0
:10153000CF93CDB7DEB7A1970FB6F894DEBF0FBE3D
:10154000CDBF2C01742ECB01223008F42AE019A261
:1015500031E2C32ED12CCC0EDD1E822E9924AA247A
:10156000BB24672D752FA50194010E94680D790198
:101570008A01C801B701A50194010E94360D472DCB
:10158000461B0894C108D1084A3014F4405D01C0DC
:10159000495CF6014083E114F1040105110521F0D5
:1015A0007E2C5F2DC801DDCFC201B6010E94760AF4
:1015B000A1960FB6F894DEBF0FBECDBFCF91DF91DD
:1015C0001F910F91FF90EF90DF90CF90BF90AF9061
:1015D0009F908F907F905F904F900895CF92DF9271
:1015E000EF92FF920F931F93CF93DF93EC016A0169
:1015F0007B012115310541F4E881F9810190F081E9
:10160000E02D642F09951FC02A303105D1F477FFF2
:1016100017C0E881F9810190F081E02D6DE2099514
:101620008C0144275527BA014C195D096E097F09C1
:10163000CE012AE00E948A0A9801280F391F04C0AF
:101640002AE00E948A0A9C01C901DF91CF911F9173
:101650000F91FF90EF90DF90CF900895EF92FF925F
:101660000F931F937B019A010027F7FC0095102F21
:10167000B801A7010E94EE0A1F910F91FF90EF9011
:1016800008950E94760A0895EF92FF920F931F9398
:101690007C010E94760A8C01C7010E94560A080F3D
:1016A000191FC8011F910F91FF90EF9008950E949C
:1016B000380108950E948E0008951F920F920FB670
:1016C0000F9211242F933F938F939F93AF93BF93C8
:1016D0008091030490910404A0910504B091060444
:1016E000309107040196A11DB11D232F2D5F2D37C9
:1016F00020F02D570196A11DB11D20930704809362
:10170000030490930404A0930504B093060480910D
:10171000FF0390910004A0910104B091020401968E
:10172000A11DB11D8093FF0390930004A0930104B9
:10173000B0930204BF91AF919F918F913F912F91F0
:101740000F900FBE0F901F9018958FB7F8942091AF
:1017500003043091040440910504509106048FBFA6
:10176000B901CA0108959B01AC017FB7F89480913B
:10177000FF0390910004A0910104B091020466B5AA
:10178000A89B05C06F3F19F00196A11DB11D7FBF39
:10179000BA2FA92F982F8827860F911DA11DB11D43
:1017A00062E0880F991FAA1FBB1F6A95D1F7BC0181
:1017B0002DC0FFB7F8948091FF0390910004A09191
:1017C0000104B0910204E6B5A89B05C0EF3F19F0F3
:1017D0000196A11DB11DFFBFBA2FA92F982F8827F1
:1017E0008E0F911DA11DB11DE2E0880F991FAA1F48
:1017F000BB1FEA95D1F7861B970B885E9340C8F212
:10180000215030404040504068517C4F21153105F7
:101810004105510571F60895789484B5826084BDC0
:1018200084B5816084BD85B5826085BD85B58160E4
:1018300085BDEEE6F0E0808181608083E1E8F0E044
:101840001082808182608083808181608083E0E873
:10185000F0E0808181608083E1EBF0E08081846052
:101860008083E0EBF0E0808181608083EAE7F0E054
:1018700080818460808380818260808380818160B8
:1018800080838081806880831092C1000895982FA2
:101890008E3008F09E5097708091DF028295880FFD
:1018A000880F807C892B80937C0080917A008064F3
:1018B00080937A0080917A0086FDFCCF2091780099
:1018C00040917900942F80E030E0282B392BC9011A
:1018D0000895482F50E0CA0186569F4FFC0124917D
:1018E0004A575F4FFA0184918823C1F0E82FF0E056
:1018F000EE0FFF1FE859FF4FA591B491662341F405
:101900009FB7F8948C91209582238C939FBF089564
:101910009FB7F8948C91822B8C939FBF0895482F8A
:1019200050E0CA0182559F4FFC012491CA0186569E
:101930009F4FFC0194914A575F4FFA013491332332
:1019400009F440C0222351F1233071F0243028F4EF
:101950002130A1F0223011F514C02630B1F027302B
:10196000C1F02430D9F404C0809180008F7703C087
:10197000809180008F7D8093800010C084B58F7728
:1019800002C084B58F7D84BD09C08091B0008F777F
:1019900003C08091B0008F7D8093B000E32FF0E012
:1019A000EE0FFF1FEE58FF4FA591B4912FB7F8949B
:1019B000662321F48C919095892302C08C91892B08
:1019C0008C932FBF0895682F70E0CB0182559F4FF5
:1019D000FC012491CB0186569F4FFC0144916A572C
:1019E0007F4FFB019491992319F420E030E03CC033
:1019F000222351F1233071F0243028F42130A1F05A
:101A0000223011F514C02630B1F02730C1F0243057
:101A1000D9F404C0809180008F7703C0809180004A
:101A20008F7D8093800010C084B58F7702C084B50D
:101A30008F7D84BD09C08091B0008F7703C08091F5
:101A4000B0008F7D8093B000892F90E0880F991FA0
:101A500084589F4FFC01A591B4918C9120E030E017
:101A6000842311F021E030E0C9010895629FD00184
:101A7000739FF001829FE00DF11D649FE00DF11D49
:101A8000929FF00D839FF00D749FF00D659FF00DF8
:101A90009927729FB00DE11DF91F639FB00DE11DE5
:101AA000F91FBD01CF011124089597FB092E0726C8
:101AB0000AD077FD04D02ED006D000201AF47095FD
:101AC00061957F4F0895F6F7909581959F4F089502
:101AD000A1E21A2EAA1BBB1BFD010DC0AA1FBB1F32
:101AE000EE1FFF1FA217B307E407F50720F0A21BA4
:101AF000B30BE40BF50B661F771F881F991F1A9411
:101B000069F760957095809590959B01AC01BD013A
:101B1000CF010895AA1BBB1B51E107C0AA1FBB1F21
:101B2000A617B70710F0A61BB70B881F991F5A9569
:101B3000A9F780959095BC01CD010895EE0FFF1F88
:101B40000590F491E02D099410E0C6ECD0E004C0BB
:101B5000FE010E94A00D2296C83CD107C9F7F89457
:021B6000FFCFB5
:101B62004379636C6500200020000C0400005430AF
:101B7200204C312046302042300A205430204C3153
:101B82002046302042310A205435204C313520463F
:101B920031322042300A205435204C342046313232
:101BA2002042310A205439204C3120463020423123
:101BB2000A20543130204C31204631322042310A41
:101BC20020543131204C312046302042310A2054F9
:101BD2003132204C31204631322042310A205431F8
:101BE20033204C312046302042310A2054313420F7
:101BF2004C31204631322042310A20543135204CBA
:101C0200312046302042310A20543136204C3420D3
:101C12004631322042310A20543230204C313520B4
:101C22004631322042310A20543230204C34204690
:101C320031322042300A20543234204C3120463096
:101C42002042300A20543235204C31204631322095
:101C520042300A20543236204C3120463020423065
:101C62000A20543237204C31204631322042300A89
:101C720020543238204C312046302042300A205441
:101C82003239204C31204631322042300A2054333E
:101C920030204C312046302042300A20543331204B
:101CA2004C34204631322042300A20543335204C05
:101CB2003135204631322042300A20543335204C0F
:101CC20034204631322042310A20543339204C31FB
:101CD2002046302042310A20543430204C312046F4
:101CE20031322042310A20543431204C31204630E6
:101CF2002042310A20543432204C312046313220E5
:101D020042310A20543433204C31204630204231B3
:101D12000A20543434204C31204631322042310AD8
:101D220020543435204C312046302042310A205490
:101D32003436204C34204631322042310A20000110
:101D420000000000FD02DB040000000003059A050C
:101D52008200780073006E00690064005F005A0020
:101D6200550050004B00460000000000AB05F30593
:101D720000000000AA067307000000000E082808F1
:101D820000000000A0092C0A3409650945098E09E2
:00000001FF
